{
  "contractName": "MyERC20",
  "abi": [
    {
      "inputs": [
        {
          "internalType": "string",
          "name": "name",
          "type": "string"
        },
        {
          "internalType": "string",
          "name": "symbol",
          "type": "string"
        },
        {
          "internalType": "uint8",
          "name": "decimals",
          "type": "uint8"
        }
      ],
      "stateMutability": "nonpayable",
      "type": "constructor"
    },
    {
      "anonymous": false,
      "inputs": [
        {
          "indexed": true,
          "internalType": "address",
          "name": "owner",
          "type": "address"
        },
        {
          "indexed": true,
          "internalType": "address",
          "name": "spender",
          "type": "address"
        },
        {
          "indexed": false,
          "internalType": "uint256",
          "name": "value",
          "type": "uint256"
        }
      ],
      "name": "Approval",
      "type": "event"
    },
    {
      "anonymous": false,
      "inputs": [
        {
          "indexed": true,
          "internalType": "address",
          "name": "from",
          "type": "address"
        },
        {
          "indexed": true,
          "internalType": "address",
          "name": "to",
          "type": "address"
        },
        {
          "indexed": false,
          "internalType": "uint256",
          "name": "value",
          "type": "uint256"
        }
      ],
      "name": "Transfer",
      "type": "event"
    },
    {
      "inputs": [],
      "name": "name",
      "outputs": [
        {
          "internalType": "string",
          "name": "",
          "type": "string"
        }
      ],
      "stateMutability": "view",
      "type": "function"
    },
    {
      "inputs": [],
      "name": "symbol",
      "outputs": [
        {
          "internalType": "string",
          "name": "",
          "type": "string"
        }
      ],
      "stateMutability": "view",
      "type": "function"
    },
    {
      "inputs": [],
      "name": "decimals",
      "outputs": [
        {
          "internalType": "uint8",
          "name": "",
          "type": "uint8"
        }
      ],
      "stateMutability": "view",
      "type": "function"
    },
    {
      "inputs": [],
      "name": "totalSupply",
      "outputs": [
        {
          "internalType": "uint256",
          "name": "",
          "type": "uint256"
        }
      ],
      "stateMutability": "view",
      "type": "function"
    },
    {
      "inputs": [
        {
          "internalType": "address",
          "name": "account",
          "type": "address"
        }
      ],
      "name": "balanceOf",
      "outputs": [
        {
          "internalType": "uint256",
          "name": "",
          "type": "uint256"
        }
      ],
      "stateMutability": "view",
      "type": "function"
    },
    {
      "inputs": [
        {
          "internalType": "address",
          "name": "recipient",
          "type": "address"
        },
        {
          "internalType": "uint256",
          "name": "amount",
          "type": "uint256"
        }
      ],
      "name": "transfer",
      "outputs": [
        {
          "internalType": "bool",
          "name": "",
          "type": "bool"
        }
      ],
      "stateMutability": "nonpayable",
      "type": "function"
    },
    {
      "inputs": [
        {
          "internalType": "address",
          "name": "owner",
          "type": "address"
        },
        {
          "internalType": "address",
          "name": "spender",
          "type": "address"
        }
      ],
      "name": "allowance",
      "outputs": [
        {
          "internalType": "uint256",
          "name": "",
          "type": "uint256"
        }
      ],
      "stateMutability": "view",
      "type": "function"
    },
    {
      "inputs": [
        {
          "internalType": "address",
          "name": "spender",
          "type": "address"
        },
        {
          "internalType": "uint256",
          "name": "value",
          "type": "uint256"
        }
      ],
      "name": "approve",
      "outputs": [
        {
          "internalType": "bool",
          "name": "",
          "type": "bool"
        }
      ],
      "stateMutability": "nonpayable",
      "type": "function"
    },
    {
      "inputs": [
        {
          "internalType": "address",
          "name": "sender",
          "type": "address"
        },
        {
          "internalType": "address",
          "name": "recipient",
          "type": "address"
        },
        {
          "internalType": "uint256",
          "name": "amount",
          "type": "uint256"
        }
      ],
      "name": "transferFrom",
      "outputs": [
        {
          "internalType": "bool",
          "name": "",
          "type": "bool"
        }
      ],
      "stateMutability": "nonpayable",
      "type": "function"
    },
    {
      "inputs": [
        {
          "internalType": "address",
          "name": "spender",
          "type": "address"
        },
        {
          "internalType": "uint256",
          "name": "addedValue",
          "type": "uint256"
        }
      ],
      "name": "increaseAllowance",
      "outputs": [
        {
          "internalType": "bool",
          "name": "",
          "type": "bool"
        }
      ],
      "stateMutability": "nonpayable",
      "type": "function"
    },
    {
      "inputs": [
        {
          "internalType": "address",
          "name": "spender",
          "type": "address"
        },
        {
          "internalType": "uint256",
          "name": "subtractedValue",
          "type": "uint256"
        }
      ],
      "name": "decreaseAllowance",
      "outputs": [
        {
          "internalType": "bool",
          "name": "",
          "type": "bool"
        }
      ],
      "stateMutability": "nonpayable",
      "type": "function"
    },
    {
      "inputs": [
        {
          "internalType": "address",
          "name": "account",
          "type": "address"
        },
        {
          "internalType": "uint256",
          "name": "amount",
          "type": "uint256"
        }
      ],
      "name": "_mint",
      "outputs": [],
      "stateMutability": "nonpayable",
      "type": "function"
    }
  ],
  "bytecode": "0x60806040523480156200001157600080fd5b5060405162000c3238038062000c328339810160408190526200003491620001ce565b8251620000499060029060208601906200007d565b5081516200005f9060039060208501906200007d565b506004805460ff191660ff9290921691909117905550620002a29050565b8280546200008b906200024f565b90600052602060002090601f016020900481019282620000af5760008555620000fa565b82601f10620000ca57805160ff1916838001178555620000fa565b82800160010185558215620000fa579182015b82811115620000fa578251825591602001919060010190620000dd565b50620001089291506200010c565b5090565b5b808211156200010857600081556001016200010d565b600082601f83011262000134578081fd5b81516001600160401b03808211156200015157620001516200028c565b6040516020601f8401601f19168201810183811183821017156200017957620001796200028c565b604052838252858401810187101562000190578485fd5b8492505b83831015620001b3578583018101518284018201529182019162000194565b83831115620001c457848185840101525b5095945050505050565b600080600060608486031215620001e3578283fd5b83516001600160401b0380821115620001fa578485fd5b620002088783880162000123565b945060208601519150808211156200021e578384fd5b506200022d8682870162000123565b925050604084015160ff8116811462000244578182fd5b809150509250925092565b6002810460018216806200026457607f821691505b602082108114156200028657634e487b7160e01b600052602260045260246000fd5b50919050565b634e487b7160e01b600052604160045260246000fd5b61098080620002b26000396000f3fe608060405234801561001057600080fd5b50600436106100b45760003560e01c80634e6ec247116100715780634e6ec2471461014757806370a082311461015c57806395d89b411461016f578063a457c2d714610177578063a9059cbb1461018a578063dd62ed3e1461019d576100b4565b806306fdde03146100b9578063095ea7b3146100d757806318160ddd146100f757806323b872dd1461010c578063313ce5671461011f5780633950935114610134575b600080fd5b6100c16101b0565b6040516100ce919061071b565b60405180910390f35b6100ea6100e53660046106e7565b610242565b6040516100ce9190610710565b6100ff610258565b6040516100ce91906108b3565b6100ea61011a3660046106ac565b61025e565b6101276102af565b6040516100ce91906108bc565b6100ea6101423660046106e7565b6102b8565b61015a6101553660046106e7565b6102ee565b005b6100ff61016a366004610660565b6103ab565b6100c16103ca565b6100ea6101853660046106e7565b6103d9565b6100ea6101983660046106e7565b61040f565b6100ff6101ab36600461067a565b61041c565b6060600280546101bf906108f9565b80601f01602080910402602001604051908101604052809291908181526020018280546101eb906108f9565b80156102385780601f1061020d57610100808354040283529160200191610238565b820191906000526020600020905b81548152906001019060200180831161021b57829003601f168201915b5050505050905090565b600061024f338484610447565b50600192915050565b60055490565b600061026b8484846104fb565b6001600160a01b0384166000908152600160209081526040808320338085529252909120546102a59186916102a090866105eb565b610447565b5060019392505050565b60045460ff1690565b3360008181526001602090815260408083206001600160a01b0387168452909152812054909161024f9185906102a0908661061c565b6001600160a01b03821661031d5760405162461bcd60e51b81526004016103149061087c565b60405180910390fd5b60055461032a908261061c565b6005556001600160a01b038216600090815260208190526040902054610350908261061c565b6001600160a01b0383166000818152602081905260408082209390935591519091907fddf252ad1be2c89b69c2b068fc378daa952ba7f163c4a11628f55a4df523b3ef9061039f9085906108b3565b60405180910390a35050565b6001600160a01b0381166000908152602081905260409020545b919050565b6060600380546101bf906108f9565b3360008181526001602090815260408083206001600160a01b0387168452909152812054909161024f9185906102a090866105eb565b600061024f3384846104fb565b6001600160a01b03918216600090815260016020908152604080832093909416825291909152205490565b6001600160a01b03831661046d5760405162461bcd60e51b815260040161031490610838565b6001600160a01b0382166104935760405162461bcd60e51b8152600401610314906107b1565b6001600160a01b0380841660008181526001602090815260408083209487168084529490915290819020849055517f8c5be1e5ebec7d5bd14f71427d1e84f3dd0314c0f7b2291e5b200ac8c7c3b925906104ee9085906108b3565b60405180910390a3505050565b6001600160a01b0383166105215760405162461bcd60e51b8152600401610314906107f3565b6001600160a01b0382166105475760405162461bcd60e51b81526004016103149061076e565b6001600160a01b03831660009081526020819052604090205461056a90826105eb565b6001600160a01b038085166000908152602081905260408082209390935590841681522054610599908261061c565b6001600160a01b0380841660008181526020819052604090819020939093559151908516907fddf252ad1be2c89b69c2b068fc378daa952ba7f163c4a11628f55a4df523b3ef906104ee9085906108b3565b60008282111561060b57634e487b7160e01b600052600160045260246000fd5b61061582846108e2565b9392505050565b60008061062983856108ca565b90508381101561061557634e487b7160e01b600052600160045260246000fd5b80356001600160a01b03811681146103c557600080fd5b600060208284031215610671578081fd5b61061582610649565b6000806040838503121561068c578081fd5b61069583610649565b91506106a360208401610649565b90509250929050565b6000806000606084860312156106c0578081fd5b6106c984610649565b92506106d760208501610649565b9150604084013590509250925092565b600080604083850312156106f9578182fd5b61070283610649565b946020939093013593505050565b901515815260200190565b6000602080835283518082850152825b818110156107475785810183015185820160400152820161072b565b818111156107585783604083870101525b50601f01601f1916929092016040019392505050565b60208082526023908201527f45524332303a207472616e7366657220746f20746865207a65726f206164647260408201526265737360e81b606082015260800190565b60208082526022908201527f45524332303a20617070726f766520746f20746865207a65726f206164647265604082015261737360f01b606082015260800190565b60208082526025908201527f45524332303a207472616e736665722066726f6d20746865207a65726f206164604082015264647265737360d81b606082015260800190565b60208082526024908201527f45524332303a20617070726f76652066726f6d20746865207a65726f206164646040820152637265737360e01b606082015260800190565b6020808252601f908201527f45524332303a206d696e7420746f20746865207a65726f206164647265737300604082015260600190565b90815260200190565b60ff91909116815260200190565b600082198211156108dd576108dd610934565b500190565b6000828210156108f4576108f4610934565b500390565b60028104600182168061090d57607f821691505b6020821081141561092e57634e487b7160e01b600052602260045260246000fd5b50919050565b634e487b7160e01b600052601160045260246000fdfea2646970667358221220a9cbea81c5ec2796460806baedca113d903ab28b5cb5f2a5f778fc454cf4030464736f6c63430008000033",
  "immutableReferences": {},
  "source": "// SPDX-License-Identifier: GPL-3.0\npragma solidity ^0.8.0;\n\n\nimport \"./SafeMath.sol\";\nimport \"./IERC20.sol\";\n\ncontract MyERC20 is IERC20 {\n    using SafeMath for uint256;\n\n    mapping (address => uint256) private _balances;\n\n    mapping (address => mapping (address => uint256)) private _allowances;\n\n    // https://github.com/OpenZeppelin/openzeppelin-solidity/blob/v2.3.0/contracts/token/ERC20/ERC20Detailed.sol   \n    string private _name;\n    string private _symbol;\n    uint8 private _decimals;\n\n    constructor (string memory name, string memory symbol, uint8 decimals) public {\n        _name = name;\n        _symbol = symbol;\n        _decimals = decimals;\n\n//        _mint(msg.sender, 100000 * 10 ** uint256(decimals)); // !\n    }\n\n    /**\n     * @dev   .\n     */\n    function name() public view returns (string memory) {\n        return _name;\n    }\n\n    /**\n     * @dev      \n     * .\n     */\n    function symbol() public view returns (string memory) {\n        return _symbol;\n    }\n\n    /**\n     * @dev      .\n     *  , `decimals`  `2` , 505` \n     *  `5,05` (`505 / 10 ** 2`)   .\n     *\n     *   18  ,  Ether Wei \n     *  .\n     *\n     * >     .\n     * `IERC20.balanceOf` `IERC20.transfer` \n     *       .\n     */\n    function decimals() public view returns (uint8) {\n        return _decimals;\n    }\n    // https://github.com/OpenZeppelin/openzeppelin-solidity/blob/v2.3.0/contracts/token/ERC20/ERC20Detailed.sol   \n\n    uint256 private _totalSupply;\n\n    /**\n     * @dev `IERC20.totalSupply` .\n     */\n    function totalSupply() public override view returns (uint256) {\n        return _totalSupply;\n    }\n\n    /**\n     * @dev `IERC20.balanceOf` .\n     */\n    function balanceOf(address account) public override view returns (uint256) {\n        return _balances[account];\n    }\n\n    /**\n     * @dev `IERC20.transfer` .\n     *\n     *  :\n     *\n     * - `recipient`  (0x0000...0)   .\n     * -    `amount`  .\n     */\n    function transfer(address recipient, uint256 amount) public override returns (bool) {\n        _transfer(msg.sender, recipient, amount);\n        return true;\n    }\n\n    /**\n     * @dev `IERC20.allowance` .\n     */\n    function allowance(address owner, address spender) public override view returns (uint256) {\n        return _allowances[owner][spender];\n    }\n\n    /**\n     * @dev `IERC20.approve` .\n     *\n     * :\n     *\n     * - `spender`     .\n     */\n    function approve(address spender, uint256 value) public override returns (bool) {\n        _approve(msg.sender, spender, value);\n        return true;\n    }\n\n    /**\n     * @dev `IERC20.transferFrom` .\n     *\n     *    `Approval`  .  EIP\n     *   . `ERC20`      .\n     *\n     * :\n     * - `sender` `recipient`     .\n     * - `sender`   `value`  .\n     * -  `sender`    `amount`  \n     *  .\n     */\n    function transferFrom(address sender, address recipient, uint256 amount) public override returns (bool) {\n        _transfer(sender, recipient, amount);\n        _approve(sender, msg.sender, _allowances[sender][msg.sender].sub(amount));\n        return true;\n    }\n\n    /**\n     * @dev   (atomically) `spender`   .\n     *\n     *  `IERC20.approve`       \n     * `approve` .\n     *\n     *    `Approval`  .\n     *\n     * :\n     *\n     * - `spender`     .\n     */\n    function increaseAllowance(address spender, uint256 addedValue) public returns (bool) {\n        _approve(msg.sender, spender, _allowances[msg.sender][spender].add(addedValue));\n        return true;\n    }\n\n    /**\n     * @dev    `spender`   .\n     *\n     *  `IERC20.approve`       \n     * `approve` .\n     *\n     *    `Approval`  .\n     *\n     * :\n     *\n     * - `spender`     .\n     * - `spender`    `subtractedValue`  \n     *  .\n     */\n    function decreaseAllowance(address spender, uint256 subtractedValue) public returns (bool) {\n        _approve(msg.sender, spender, _allowances[msg.sender][spender].sub(subtractedValue));\n        return true;\n    }\n\n    /**\n     * @dev `amount`  `sender` `recipient` .\n     *\n     * This is internal function is equivalent to `transfer`, and can be used to\n     * e.g. implement automatic token fees, slashing mechanisms, etc.\n     *\n     * Emits a `Transfer` event.\n     *\n     * :\n     *\n     * - `sender`     .\n     * - `recipient`     .\n     * - `sender`   `amount`  .\n     */\n    function _transfer(address sender, address recipient, uint256 amount) internal {\n        require(sender != address(0), \"ERC20: transfer from the zero address\");\n        require(recipient != address(0), \"ERC20: transfer to the zero address\");\n\n        _balances[sender] = _balances[sender].sub(amount);\n        _balances[recipient] = _balances[recipient].add(amount);\n        emit Transfer(sender, recipient, amount);\n    }\n\n    /** @dev `amount`   `account` .\n     *   .\n     *\n     * `from`    `Transfer`  .\n     *\n     * :\n     *\n     * - `to`     .\n     */\n    function _mint(address account, uint256 amount) public {\n        require(account != address(0), \"ERC20: mint to the zero address\");\n\n        _totalSupply = _totalSupply.add(amount);\n        _balances[account] = _balances[account].add(amount);\n        emit Transfer(address(0), account, amount);\n    }\n\n    /**\n    * @dev `account` `amount`  ,\n     *   .\n     *\n     * `to`    `Transfer`  .\n     *\n     * :\n     *\n     * - `account`     .\n     * - `account`  `amount`   .\n     */\n    function _burn(address account, uint256 value) internal {\n        require(account != address(0), \"ERC20: burn from the zero address\");\n\n        _balances[account] = _balances[account].sub(value);\n        _totalSupply = _totalSupply.sub(value);\n        emit Transfer(account, address(0), value);\n    }\n\n    /**\n     * @dev `owner`   `spender`  `amount` .\n     *\n     * This is internal function is equivalent to `approve`, and can be used to\n     * e.g. set automatic allowances for certain subsystems, etc.\n     *\n     * Emits an `Approval` event.\n     *\n     * :\n     *\n     * - `owner`     .\n     * - `spender`     .\n     */\n    function _approve(address owner, address spender, uint256 value) internal {\n        require(owner != address(0), \"ERC20: approve from the zero address\");\n        require(spender != address(0), \"ERC20: approve to the zero address\");\n\n        _allowances[owner][spender] = value;\n        emit Approval(owner, spender, value);\n    }\n\n    /**\n     * @dev `account` `amount`  ,\n     *   `amount` .\n     *\n     * `_burn`  `_approve` .\n     */\n    function _burnFrom(address account, uint256 amount) internal {\n        _burn(account, amount);\n        _approve(account, msg.sender, _allowances[account][msg.sender].sub(amount));\n    }\n}",
  "sourcePath": "/Users/choehyeongjung/Documents/dev/study/code/market/contract/point/MyERC20.sol",
  "compiler": {
    "name": "solc",
    "version": "0.8.0+commit.c7dfd78e.Emscripten.clang"
  },
  "schemaVersion": "3.4.11",
  "updatedAt": "2023-02-27T08:50:04.585Z",
  "devdoc": {
    "kind": "dev",
    "methods": {
      "_mint(address,uint256)": {
        "details": "`amount`   `account` .   . `from`    `Transfer`  . : - `to`     ."
      },
      "allowance(address,address)": {
        "details": "`IERC20.allowance` ."
      },
      "approve(address,uint256)": {
        "details": "`IERC20.approve` . : - `spender`     ."
      },
      "balanceOf(address)": {
        "details": "`IERC20.balanceOf` ."
      },
      "decimals()": {
        "details": "     .  , `decimals`  `2` , 505`   `5,05` (`505 / 10 ** 2`)   .   18  ,  Ether Wei   . >     . `IERC20.balanceOf` `IERC20.transfer`        ."
      },
      "decreaseAllowance(address,uint256)": {
        "details": "   `spender`   .  `IERC20.approve`        `approve` .    `Approval`  . : - `spender`     . - `spender`    `subtractedValue`    ."
      },
      "increaseAllowance(address,uint256)": {
        "details": "  (atomically) `spender`   .  `IERC20.approve`        `approve` .    `Approval`  . : - `spender`     ."
      },
      "name()": {
        "details": "  ."
      },
      "symbol()": {
        "details": "      ."
      },
      "totalSupply()": {
        "details": "`IERC20.totalSupply` ."
      },
      "transfer(address,uint256)": {
        "details": "`IERC20.transfer` .  : - `recipient`  (0x0000...0)   . -    `amount`  ."
      },
      "transferFrom(address,address,uint256)": {
        "details": "`IERC20.transferFrom` .    `Approval`  .  EIP   . `ERC20`      . : - `sender` `recipient`     . - `sender`   `value`  . -  `sender`    `amount`    ."
      }
    },
    "version": 1
  },
  "userdoc": {
    "kind": "user",
    "methods": {},
    "version": 1
  }
}